:020000040000fa
:080000000002040000000000f2
:020000040000fa
:040008007a03000077
:020000040000fa
:04000c007a03000073
:020000040000fa
:040010007a0300006f
:020000040000fa
:040014007a0300006b
:020000040000fa
:040018007a03000067
:020000040000fa
:04001c007a03000063
:020000040000fa
:040020007a0300005f
:020000040000fa
:040024007a0300005b
:020000040000fa
:040028007a03000057
:020000040000fa
:04002c007a03000053
:020000040000fa
:040030007a0300004f
:020000040000fa
:0400340002030000c3
:020000040000fa
:040038007a03000047
:020000040000fa
:04003c007a03000043
:020000040000fa
:040040007a0300003f
:020000040000fa
:040044007a0300003b
:020000040000fa
:04004800fa020000b8
:020000040000fa
:04004c007a03000033
:020000040000fa
:040050007a0300002f
:020000040000fa
:040054007a0300002b
:020000040000fa
:040058007a03000027
:020000040000fa
:04005c004c03000051
:020000040000fa
:040060007a0300001f
:020000040000fa
:040064007a0300001b
:020000040000fa
:040068007a03000017
:020000040000fa
:04006c007a03000013
:020000040000fa
:040070007a0300000f
:020000040000fa
:040074007a0300000b
:020000040000fa
:040078007a03000007
:020000040000fa
:04007c007a03000003
:020000040000fa
:040080007a030000ff
:020000040000fa
:040084007a030000fb
:020000040000fa
:040088007a030000f7
:020000040000fa
:04008c007a030000f3
:020000040000fa
:040090007a030000ef
:020000040000fa
:040094002203000043
:020000040000fa
:040098007a030000e7
:020000040000fa
:04009c007a030000e3
:020000040000fa
:0400a0007a030000df
:020000040000fa
:0400a4007a030000db
:020000040000fa
:0400a8007a030000d7
:020000040000fa
:0400ac007a030000d3
:020000040000fa
:0400b0007a030000cf
:020000040000fa
:0400b4007a030000cb
:020000040000fa
:0400b8007a030000c7
:020000040000fa
:0400bc007a030000c3
:020000040000fa
:0400c0007a030000bf
:020000040000fa
:0400c4007a030000bb
:020000040000fa
:0400c8007a030000b7
:020000040000fa
:0400cc007a030000b3
:020000040000fa
:0400d0007a030000af
:020000040000fa
:0400d4007a030000ab
:020000040000fa
:0400d8007a030000a7
:020000040000fa
:0400dc007a030000a3
:020000040000fa
:0400e0007a0300009f
:020000040000fa
:0400e4007a0300009b
:020000040000fa
:0400e8007a03000097
:020000040000fa
:0400ec007a03000093
:020000040000fa
:0400f0007a0300008f
:020000040000fa
:0400f4007a0300008b
:020000040000fa
:0400f8007a03000087
:020000040000fa
:0400fc007a03000083
:020000040000fa
:040100007a0300007e
:020000040000fa
:040104007a0300007a
:020000040000fa
:040108007a03000076
:020000040000fa
:04010c007a03000072
:020000040000fa
:040110007a0300006e
:020000040000fa
:040114007a0300006a
:020000040000fa
:040118007a03000066
:020000040000fa
:04011c007a03000062
:020000040000fa
:040120007a0300005e
:020000040000fa
:040124007a0300005a
:020000040000fa
:040128007a03000056
:020000040000fa
:04012c007a03000052
:020000040000fa
:040130007a0300004e
:020000040000fa
:040134007a0300004a
:020000040000fa
:040138007a03000046
:020000040000fa
:04013c007a03000042
:020000040000fa
:040140007a0300003e
:020000040000fa
:040144007a0300003a
:020000040000fa
:040148007a03000036
:020000040000fa
:04014c007a03000032
:020000040000fa
:040150007a0300002e
:020000040000fa
:040154007a0300002a
:020000040000fa
:040158007a03000026
:020000040000fa
:04015c007a03000022
:020000040000fa
:040160007a0300001e
:020000040000fa
:040164007a0300001a
:020000040000fa
:040168007a03000016
:020000040000fa
:04016c007a03000012
:020000040000fa
:040170007a0300000e
:020000040000fa
:040174007a0300000a
:020000040000fa
:040178007a03000006
:020000040000fa
:04017c007a03000002
:020000040000fa
:040180007a030000fe
:020000040000fa
:040184007a030000fa
:020000040000fa
:040188007a030000f6
:020000040000fa
:04018c007a030000f2
:020000040000fa
:040190007a030000ee
:020000040000fa
:040194007a030000ea
:020000040000fa
:040198007a030000e6
:020000040000fa
:04019c007a030000e2
:020000040000fa
:0401a0007a030000de
:020000040000fa
:0401a4007a030000da
:020000040000fa
:0401a8007a030000d6
:020000040000fa
:0401ac007a030000d2
:020000040000fa
:0401b0007a030000ce
:020000040000fa
:0401b4007a030000ca
:020000040000fa
:0401b8007a030000c6
:020000040000fa
:0401bc007a030000c2
:020000040000fa
:0401c0007a030000be
:020000040000fa
:0401c4007a030000ba
:020000040000fa
:0401c8007a030000b6
:020000040000fa
:0401cc007a030000b2
:020000040000fa
:0401d0007a030000ae
:020000040000fa
:0401d4007a030000aa
:020000040000fa
:0401d8007a030000a6
:020000040000fa
:0401dc007a030000a2
:020000040000fa
:0401e0007a0300009e
:020000040000fa
:0401e4007a0300009a
:020000040000fa
:0401e8007a03000096
:020000040000fa
:0401ec007a03000092
:020000040000fa
:0401f0007a0300008e
:020000040000fa
:0401f4007a0300008a
:020000040000fa
:0401f8007a03000086
:020000040000fa
:0401fc007a03000082
:020000040000fa
:040200007a0300007d
:020000040000fa
:040204007a03000079
:020000040000fa
:040208007a03000075
:020000040000fa
:04020c007a03000071
:020000040000fa
:040210007a0300006d
:020000040000fa
:040214007a03000069
:020000040000fa
:040218007a03000065
:020000040000fa
:04021c007a03000061
:020000040000fa
:040220007a0300005d
:020000040000fa
:040224007a03000059
:020000040000fa
:040228007a03000055
:020000040000fa
:04022c007a03000051
:020000040000fa
:040230007a0300004d
:020000040000fa
:040234007a03000049
:020000040000fa
:040238007a03000045
:020000040000fa
:04023c007a03000041
:020000040000fa
:040240007a0300003d
:020000040000fa
:040244007a03000039
:020000040000fa
:040248007a03000035
:020000040000fa
:04024c007a03000031
:020000040000fa
:040250007a0300002d
:020000040000fa
:040254007a03000029
:020000040000fa
:040258007a03000025
:020000040000fa
:04025c007a03000021
:020000040000fa
:040260007a0300001d
:020000040000fa
:040264007a03000019
:020000040000fa
:040268007a03000015
:020000040000fa
:04026c007a03000011
:020000040000fa
:040270007a0300000d
:020000040000fa
:040274007a03000009
:020000040000fa
:040278007a03000005
:020000040000fa
:04027c007a03000001
:020000040000fa
:040280007a030000fd
:020000040000fa
:100400004f0321000eff2c000e01880000000000a9
:10041000000020000000e000020032000001200087
:100420002002880014000700b40007000000e0006c
:1004300003003a00600c2100010020000200370098
:100440000000200001002000810f70000100320038
:100450000f000700000020000000e0000200320052
:1004600000000200000000000c0702000000000075
:100470000040da000000fe00200020000000e00044
:1004800002003200100020009001880000000600e9
:10049000a1028800800478000000eb001f003700f4
:1004a000e284440054a0b4009905ba00e2844400f8
:1004b00054a0b4009906ba00e284440054a0b400e9
:1004c0000006eb00476fde00fd07b200ae018800ba
:1004d000636ce10003003a000ad801000000eb0061
:1004e0000e003700606ce10008003a00004deb00a0
:1004f0000a05e800020039003420ec000af0a000f0
:100500008b05e900f9ff3e00040037006168e10057
:10051000010032000086eb000b00070019c7ba008b
:100520000e04e0001905ba0003003a000a00e000da
:10053000dbff3a0000000600fe07b200ae028800b2
:100540008a047800f5ff37000cd0a300e20f4d00bd
:100550001c00390089027800354dba000a05e80010
:10056000020039003420ec000af0a0008b05e900fd
:100570000f003200254dba000a05e80002003900dc
:100580003420ec000af0a0008b05e90008003200de
:100590000c00e0000600320015cdba000a05e800a4
:1005a000020039003420ec000af0a0008b05e900bd
:1005b0008984e80054a0b4000b00e000e2ff3a0098
:1005c000000006009902ba00055d78008b05e9007d
:1005d000f7ff3200c82ade00055d78008b05e900d0
:1005e000f3ff32000c00e000f1ff320019ddba0029
:1005f000eeff37000000fa000108a9000080fa00b1
:10060000004006003600f800809fbe00829fbe00ba
:10061000849fbe00869fbe000000fa000068a9000b
:10062000260507008d0607000080fa004f03be0074
:100630004f02be004f01be004f00be003600f90061
:10064000004006003600f800809fbe00829fbe007a
:10065000849fbe00869fbe000000fa000368a900c8
:10066000708080008180800061004000e080480050
:100670007080880081808800950207000080fa0061
:100680004f03be004f02be004f01be004f00be0030
:100690003600f90000400600809fbe000000fa000e
:1006a00001a8a9000118800020002100010878009d
:1006b00011188000200021001100980021188000ee
:1006c0002000210021009800311880002000210026
:1006d000310098004118800020002100410098005e
:1006e00010c0b3000af0b7000080fa004f00be004f
:1006f000004006000040da000000fe000000050097
:1007000003f0a200889fbe008a9fbe008c1f780065
:100710001b010700220133006450e1004f0032004a
:100720006420e1005200320003826c0007003b00ad
:100730000905d0000306d000820f54000c065d00ae
:1007400002003900020032008901780003067800b7
:100750008582550004003d000003fd008103fd007b
:100760008502ea008b854200840f720002003b0084
:1007700060001000e08018006011b8000005eb0078
:100780007a28e1000a00390006007800c75ddd0024
:10079000f707b200878075002d0037008281710055
:1007a0000a017800610560008180d1000080d300db
:1007b0008502e900f9ff3b000604400087844800f9
:1007c00002003b0060041400e0841c000988a300c0
:1007d000070032008a81710082817100610164002a
:1007e0008904d1000884d3008b05e8001700370086
:1007f0000978a30013003a000b00e0001300340056
:100800008b05e9000804440089844c000a44740004
:100810000978a3000d003a000b00e0000700340047
:100820008b05e9000804440089844c0001003a006b
:100830000b0020000978a300f7ff32000001eb0055
:1008400002003700828171000a01780091000700e0
:100850000cf0a70001f0a000da0037006420e100ee
:1008600002003a00838f6c00da0033000801be00fa
:100870000200be00d3003700889fbe008a9fbe00e2
:100880008c1f7800be000700c500330003866c0093
:100890006450e1002e0032006420e1003300320099
:1008a0006150e1002f0032006120e1003100320090
:1008b00085855500eb07b0000900200008042000e2
:1008c000050037000804440089844c000a00310008
:1008d0000603430087834b000001530081815b00c6
:1008e000f8ff33000203be000800a0000804440023
:1008f00089844c00f6ff3900c639dd00830173009e
:1009000001003200130020008904d1000884d300c4
:100910000998a300050032000800a7000300a0000a
:100920008904d1000884d3008b05e8008904d10034
:100930000884d3000001eb000281d20055000700bb
:1009400001f0a1000cf0a70001f0a0009d0037000d
:100950006420e1009f0032000801be000200be00da
:10096000f7ff37006120e1009a0032006000b80014
:10097000f3ff37000000200001f82700f0ff3700e8
:1009800014002000ca003700f4ff2f00c800370011
:100990000001be00650007000470a70003f0a1007d
:1009a0006509b100160032000d0035006828e1002d
:1009b00006003500f0ff2f00f1ff27000300e000e4
:1009c00013003b000100280000000500000040006b
:1009d000818048008502e900fcff3a0008003700ea
:1009e000f88f420002003c008000eb000000050090
:1009f0008100d1000080d3008502e800fcff3a00ae
:100a00000300e00002003b0060001000e0801800de
:100a1000000006000001be00440007000470a700ab
:100a200003f0a10003f8a30013003a006509b10028
:100a300010003200090035006928e100020035008d
:100a400001002800000005000000400081804800ef
:100a50008502e900fcff3a0000000600f88f420022
:100a6000050035008100d1000080d3008502e80038
:100a7000fcff3a00000006008000eb0000000500cb
:100a80004f89de0082017800a40037006011b800b1
:100a9000b200370081002000618055000b003d004e
:100aa0000b00200061fe2f000100e1001d0034005a
:100ab00082817100610164008904d1000884d3003f
:100ac0000000e800faff3a007100200061006400b5
:100ad000030070000200600009003200610444005d
:100ae000e0844c000988a500050032008b05e80071
:100af0006808e10002003a008904d1000884d300ac
:100b0000f20f20000258e10005003d00c75ddd0046
:100b1000f907b2008980750008007800000006001f
:100b20000bf827008b00780000000500c70ade00e4
:100b3000f107b200f50fb20008003200e1cf420029
:100b4000020032000170a00024000500810f700037
:100b5000010032000408050044000500810f700008
:100b600002003a00140005008502e9000000400080
:100b700081c04800fcff3b000170a000240005007c
:100b80000004be00e9ff07000003be000405be002c
:100b90000200be00e5ff0700844f7500000006005c
:100ba0000200be006450e100050036006420e10050
:100bb000020036000968a30001003a000800be00e8
:100bc0000160a0004f0678004f05be004f04be0034
:100bd00000000600f0ff2f00f1ff2700f9ff3700ab
:100be000889fbe008a9fbe008c1f7800e4ff07002c
:100bf000ebff330003866c006450e10024003200f8
:100c00006420e100270032006150e1002200320040
:100c10006120e100210032008b854200eb07b1002a
:100c20000134b800003ab8000804420089844a0040
:100c3000013ab8000030b8008880400009014a003d
:100c40000400330000004000818048000201490098
:100c50008b05e900c909dd00830170000100320045
:100c600013002000c814de004814dd004709de0030
:100c70001200b200c808de000884700085ff07007b
:100c800001f0a1000cf0a70001f0a000cdff37009b
:100c90006120e100cfff32000801be000200be006b
:100ca000f7ff37006150e100fcff3a00c9ff370051
:100cb000889fbe008a9fbe00841f7800b0ff070097
:100cc0004f00780011003300f0ff2f00838f6c007d
:100cd00006003b00040565000a00a7000800370075
:100ce00009f0a6001000200008003700820f540011
:100cf000838f5c00030039001000200001003e00db
:100d00000000200009f0a7000000ea004f05be0027
:100d10004f04be000000e00000000600881f7800bd
:100d2000030478000300e00007003d0060001000ad
:100d3000e080180060011900e081190002003b000a
:100d400001f02d00030037000400070008f0a700a1
:100d500001f0a0004f04780000000600889fbe004c
:100d60008a9fbe000082700004027100048271003c
:100d7000260032000004be000200be006011b80070
:100d80006b092000950220000182cf000a00390083
:100d90000541b1000082cf00070039000541b100d4
:100da0000982cf00040039000541b1000882cf005c
:100db000010039000541b100054252001200320025
:100dc0000a003b0082817100610164008100d10052
:100dd0000080d3008984d3000884d3008b05e80009
:100de0000442e800f7ff3a00070037000804440017
:100df00089844c0000004800818048008b05e90090
:100e00000442e900f9ff3a0022ff07004f05be0047
:080e10004f04be0000000600c3
:020000040000fa
:100e18000600fa00881f78009e040700c80407002f
:100e2800dc010700f4010700720207005304070001
:100e3800ef02070064cea800254ea80064eea800c3
:100e48000300370000000000010037000000000028
:100e5800880407000004e000faff32008904070054
:100e680080040700000f78001e007800100078004a
:100e78008000eb0003ff0700323323003305240012
:100e880055ff0700020020000358240078fe0700e1
:100e9800d2cc2c00c30424004fff07001007980091
:100ea800210798001e019000ae019000000020006c
:100eb800812024006efe070002002000030a24009f
:100ec8000dfe070040818800518188004081800024
:100ed8005181800018c0b30002002000031f2400c5
:100ee800a5fe07000000e000010035000044eb000b
:100ef8000804e00002003200254ea8000c0037006c
:100f0800408180005181800018c0b3000200200099
:100f1800031f24009afe07000000e00001003d00c6
:100f28000044eb000804e00001003200254ea9004f
:100f38001e80e800100078008000eb00d1fe07005a
:100f4800323323003305240023ff0700020020006a
:100f58000358240046fe0700d2cc2c00c30424000a
:100f68001dff070010079800210798001e01900038
:100f7800ae01900000002000812024003cfe070004
:100f880002002000030a2400dbfd070060818800be
:100f980071818800608180007181800018c0b30071
:100fa80002002000031f240073fe07000000e00079
:100fb800010035000044eb000804e00002003200a4
:100fc80064eea8000c003700608180007181800009
:100fd80018c0b30002002000031f240068fe0700a9
:100fe8000000e00001003d000044eb000804e000c0
:100ff8000100320064eea9009e0078006480400081
:10100800100078008000eb009efe070032332300ba
:1010180033052400f0fe07000200200003582400d6
:1010280013fe0700d2cc2c00c3042400eafe0700fc
:1010380010079800210798001e019000ae0190004b
:10104800000020008120240009fe07000200200083
:10105800030a2400a8fd0700808188009181880088
:10106800808180009181800018c0b30002002000b8
:10107800031f240040fe07000000e00001003500c7
:101088000044eb000804e0000200320064cea8002f
:101098006fff3700808180009181800018c0b30005
:1010a80002002000031f240035fe07000000e000b6
:1010b80001003d000044eb000804e00063ff32003b
:1010c80064cea90062ff37000000fa0012d0bf000a
:1010d8000080fb00cf80de00e2002000030020003b
:1010e800820f5000838f58006e003e0000060100fa
:1010f8000e00370017003700200037002a0037009d
:101108002b00370034003700350037003e00370029
:101118003f003700490037004a00370054003700c5
:10112800600037005f003700530037000e30ef00d3
:101138001030ef0012c0b3006000b800480207008a
:101148000041eb006000b8004502070010c0b30082
:1011580012f0b7007280800083808000803e2000fb
:1011680001002000800f5100818f59005000360087
:1011780020c0b30012f0b7004e00370012c0b30011
:1011880000002000011f2400350207000041eb0089
:1011980000002000011f24003102070030c0b30006
:1011a80012f0b70043003700440007004100370041
:1011b80012c0b30000002000011f2400280207000d
:1011c8000041eb006000b8002502070050c0b300e2
:1011d80012f0b70037003700380007003500370035
:1011e80012c0b3006000b8001d0207000041eb0008
:1011f80000002000011f24001902070070c0b3007e
:1012080012f0b7002b0037002c0007002900370028
:1012180012c0b300000020000117240010020700cc
:101228000041eb000000200001172c000c02070011
:1012380090c0b30012f0b7001e0037001f0007006f
:101248001c00370012c0b3000000200001172c005a
:10125800030207000041eb000000200001172400f2
:10126800ff010700b0c0b30012f0b700110037004b
:10127800120007000f00370012c0b3000000200062
:1012880001172c00f60107000041eb0000002000c8
:1012980001172c00f2010700f0c0b30012f0b700ec
:1012a800040037001270ef00000000000100370052
:1012b800000000000080fa00000006000200fa00aa
:1012c800881f78000040eb00004f780040818000c4
:1012d8005181800018c0b30002002000031f2400c1
:1012e800a5fd07000000e000010035000044eb0008
:1012f8000804e000190032006081800071818000dc
:1013080018c0b30002002000031a24009cfd070047
:101318000000e00001003c000044eb000804e0008d
:101328000e003200808180009181800018c0b300d7
:1013380002002000031f240091fd07000000e000c8
:1013480001003c000044eb000804e0000300320008
:1013580020c0b300004f78006b0037004081800048
:101368005181800018c0b30002002000031f240030
:1013780083fd07000000e00001003c000044eb0092
:101388000804e0001900320060818000718180004b
:1013980018c0b30002002000031a240078fd0700db
:1013a8000000e00001003c000044eb000804e000fd
:1013b8000e003200808180009181800018c0b30047
:1013c80002002000031f24006bfd07000000e0005e
:1013d800010035000044eb000804e000030032007f
:1013e80010c0b300004f78004700370060818000cc
:1013f8007181800018c0b30002002000031f240080
:101408005dfd07000000e000010035000044eb002e
:101418000804e00016003a004081800051818000f5
:1014280018c0b30002002000031f240052fd07006b
:101438000000e000010035000044eb000804e00073
:101448000e003200808180009181800018c0b300b6
:1014580002002000031f240047fd07000000e000f1
:10146800010035000044eb000804e00003003200ee
:1014780030c0b300004f780023003700408180005f
:101488005181800018c0b30002002000031f24000f
:101498003bfd07000000e00001003c000044eb00b9
:1014a8000804e0001800320060818000718180002b
:1014b80018c0b30002002000031a240030fd070002
:1014c8000000e00001003c000044eb000804e000dc
:1014d8000d003200808180009181800018c0b30027
:1014e80002002000031f240025fd07000000e00083
:1014f80001003c000044eb000804e0000200320058
:101508000040eb00004f78001e4078000004e00027
:1015180003003a0020c0b30013f0b70011003700f1
:101528001e407800e24f500003003a0040c0b3006c
:1015380013f0b7000b0037001e407800e14f500051
:1015480003003a0060c0b30013f0b700050037008d
:101558001e407800e34f500002003a0080c0b300fc
:1015680013f0b70013d0bf008080fb0012d0bf007b
:101578000080fb000000e900808f5000020032006c
:1015880013d0bf0012f0b7004f0478000080fa00b3
:10159800000006000000fa0013e1a90011e1a9000b
:1015a8001061a8001021a900810880000003200014
:1015b80001007000800888000a21ef000621ef0072
:1015c8002000200070088800a025260060088800f8
:1015d8002142800080ff2f00008060000000a000f2
:1015e800204288000108a9002108a80011e1a800ec
:1015f8000080fa00000006000000fa0005e1a900da
:101608000421a9000068a9002068a80005e1a80035
:101618000000200061312400020007000080fa0069
:10162800000006000400fa00881f7800008fbe0042
:1016380021088000f0fc2f0000806000200888004e
:101648001e0178009e0190000068290081c12400d5
:1016580087fc070018c0b30002f02f00f3772400be
:10166800c7fc07000000e00001003c000044eb005c
:101678000804e0005400320021088000f0fc2f002c
:10168800008060000040a000200888001e0178004b
:101698009e0190000068290081c1240074fc0700a5
:1016a800020020000310240071fc070018c0b300da
:1016b80002f02f00f3772400b1fc07000000e000df
:1016c80001003c000044eb000804e0003200320056
:1016d80021088000f0fc2f00008060000050a0006e
:1016e800200888001e0178009e01900000682900eb
:1016f80081c124005efc07000200200003282400aa
:101708005bfc070018c0b30002f02f00f377240039
:101718009bfc07000000e00001003c000044eb00d7
:101728000804e000100032002108800000032000b7
:1017380001007000200888001e0178009e019000ba
:101748000068290081c1240049fc0700020020002c
:101758000338240046fc07008bfc070000007800d3
:1017680010088800200037001e0178009e019000b4
:101778000068290081c124003dfc07000200200008
:10178800032824003afc07007ffc070000007800cb
:1017980010088800140037001e0178009e01900090
:1017a8000068290081c1240031fc070002002000e4
:1017b800031024002efc070073fc070000007800cb
:1017c80010088800080037001e0178009e0190006c
:1017d8000068290081c1240025fc07006afc070075
:1017e80000007800100888004f0478000080fa0094
:1017f800000006000000fa001fe1a9001e21a90050
:101808000368a9002368a8001fe1a80000002000c1
:10181800a1472400020007000080fa00000006002b
:101828000400fa00881f7800008fbe00210880009d
:10183800f0fc2f0000806000200888001e0178005e
:101848009e0190000068290081c1240008fc07005f
:1018580018c0b30002f02f00f377240048fc0700fb
:101868000000e00001003c000044eb000804e00038
:101878005400320021088000f0fc2f000080600036
:101888000040a000200888001e0178009e019000fa
:101898000068290081c12400f5fb07000200200030
:1018a80003102400f2fb070018c0b30002f02f0059
:1018b800f377240032fc07000000e00001003c0040
:1018c8000044eb000804e0003200320021088000e8
:1018d800f0fc2f00008060000050a0002008880065
:1018e8001e0178009e0190000068290081c1240033
:1018f800dffb07000200200003282400dcfb0700b0
:1019080018c0b30002f02f00f37724001cfc070076
:101918000000e00001003c000044eb000804e00087
:101928001000320021088000000320000100700030
:10193800200888001e0178009e0190000068290098
:1019480081c12400cafb07000200200003382400dc
:10195800c7fb07000cfc070000007800100888008f
:10196800200037001e0178009e01900000682900c1
:1019780081c12400befb07000200200003282400c8
:10198800bbfb070000fc0700000078001008880077
:10199800140037001e0178009e019000006829009d
:1019a80081c12400b2fb07000200200003102400bc
:1019b800affb0700f4fb0700000078001008880060
:1019c800080037001e0178009e0190000068290079
:1019d80081c12400a6fb0700ebfb0700000078008c
:1019e800100888004f0478000080fa000000060004
:1019f8000000fa001160800080ff2f000080600066
:101a08001060880000fa20002060880023aca8003d
:101a1800238ca80011618000f03f2f000080600037
:101a280000a0a0001061880030002000206188001c
:101a3800c3aca800c38ca80011668000f03f2f003b
:101a48000080600000a0a000106688003000200020
:101a58002066880001eca8000080fa00000006005b
:101a68000600fa00008fbe00424798004e409000e2
:101a78000004e00005003a001e0178009e01900075
:101a8800c2808800d3808800080037004e4090004c
:101a9800e14f500005003a001e0078009e009000bb
:101aa80001f0a20000818800118188000080fa00fe
:101ab800000006000000fa00889fbe008a9fbe0052
:101ac80024818000358180000081800011818000a0
:101ad80018c0b3000001be000400be00a6fb07004a
:101ae8000000e000010035000044eb000804e000bd
:101af8000f00320008818000198180002a8180004f
:101b08003b81800014d0bf000080fb00cf80de0046
:101b1800d9fb07000001be000a00be00f7fa070063
:101b28000801be00bc0007002081880031818800c0
:101b3800248180003581800000818000118180002f
:101b480018c0b3000001be000400be008cfb0700f3
:101b58000000e00001003c000044eb000804e00045
:101b68000f00320008818000198180002a818000de
:101b78003b81800014d0bf000080fb00cf80de00d6
:101b8800bdfb07000001be000a00be00dafa07002c
:101b98000801be0088000700208188003181880084
:101ba800208180003181800018c0b3006011b80026
:101bb80073fb07000000e00001003c000044eb005c
:101bc8000804e00004003200c3cca90024eea800f9
:101bd800c3eca80003003700c3eca90024cea8007a
:101be800c3cca80020818000318180005c00070000
:101bf8000200200003222400f7fb070083fb0700f4
:101c08000000780030668800e4808000f58080005d
:101c1800c0808000d180800018c0b3000001be00e1
:101c28000400be0054fb07000000e000010035007e
:101c38000044eb000804e0000f003200c880800078
:101c4800d9808000ea808000fb80800014d0bf002b
:101c58000080fb00cf80de0087fb07000001be008c
:101c68000a00be00a5fa07000801be006a000700c6
:101c7800e0808800f1808800e4808000f5808000a2
:101c8800c0808000d180800018c0b3000001be0071
:101c98000400be003afb07000000e00001003c0021
:101ca8000044eb000804e0000f003200c880800008
:101cb800d9808000ea808000fb80800014d0bf00bb
:101cc8000080fb00cf80de006bfb07000001be0038
:101cd8000a00be0088fa07000801be0036000700a7
:101ce800e0808800f1808800e0808000f18080003a
:101cf80018c0b3006011b80021fb07000000e00025
:101d080001003c000044eb000804e000040032003d
:101d180023cca90015eea80023eca8000300370087
:101d280023eca90015cea80023cca800e0808000f1
:101d3800f18080000a00070002002000032224002e
:101d4800a5fb070031fb0700000078003061880020
:101d58004f05be004f04be000080fa0000000600d8
:101d68000400fa00881f7800008fbe0018c0b30076
:101d78006011b8001e0078009e00900000fb07006c
:101d88000000e00001003d000044eb000804e00012
:101d9800030032001e0078009e0090000300370008
:101da8001e0078009e00900001f0a2004f04780009
:101db8000080fa00000006000800fa00881f78007a
:101dc800008fbe00220798003307980018c0b300a0
:101dd8002e019000be0190001e0078009e00900029
:101de800e7fa07000000e00001003c000044eb00b7
:101df8000804e000030032001e0078009e009000f6
:101e0800020037002e009000be0090004f047800ba
:101e18000080fa00000006000800fa00881f780019
:101e2800008fbe00220798003307980018c0b3003f
:101e38002e019000be0190001e0078009e009000c8
:101e4800cdfa07000000e000010035000044eb0077
:101e58000804e000030032001e0078009e00900095
:101e6800020037002e009000be0090004f0478005a
:101e78000080fa00000006000c00fa00881f7800b5
:101e8800008fbe0022079800330798004407980087
:101e98005507980018c0b3004e019000de0190006d
:101ea8001e0078009e009000b5fa07000000e000d0
:101eb80001003c000044eb000804e000040032008c
:101ec8004e019000de019000028fbe000e00370028
:101ed80018c0b3002e019000be0190001e007800cb
:101ee8009e009000a4fa07000000e0000100350001
:101ef8000044eb000804e000030032002e019000cb
:101f0800be019000028fbe001e0078009e00900067
:101f18004f0478000080fa00000006000400fa0070
:101f2800008fbe00b2fd2000930424001e0078003c
:101f38009e0090004efa0700020020004333240060
:101f480025fb07000080fa00000006000400fa00e4
:101f5800008fbe00b2fd2000930424001e0078000c
:101f68009e0090001cfb0700020020004333240061
:101f78003ffa07000080fa00000006000000fa009f
:101f880021e3a9002143a80001198000f0cf2f0008
:101f980000806000001988002043a9000119800012
:101fa800000e20000100700000198800111980003f
:101fb800f0ff210000806000101988002343a8006a
:101fc80011198000f0cf2f000080600010198800e0
:101fd8001119800030f82f00008060000030a00048
:101fe800101988002203a9002223a90025e3a900cb
:101ff800f0c0b30024e3b70021198000f00f2e00d1
:102008008080600000f02000010070002019880026
:102018003303a9002e0ea8002f6ea8006f2ea8006b
:1020280030c3a8003163a8002e03a800411980001e
:1020380000fc2f00008060004019880028e3a900f8
:1020480001a8a90021a8a80021e3a8000080fa009f
:10205800000006000000fa002023a8000080fa0013
:10206800000006000000fa00200021000080fa00ad
:10207800000006000000fa000ad0bf000080fa0045
:10208800000006000000fa000a70ef000080fa0065
:10209800000006000000fa00f0032000303a880033
:1020a800213a8000f0f32f0000806000203a880079
:1020b800213a800000fe2f00008060000000a00090
:1020c800203a88001200200080072000a109200083
:1020d800337420008049780081497800824978006b
:1020e800103a8000000178000200a000600420007f
:1020f8007105200023742000804978008149780008
:102108008249780000000000113a80000000270092
:102118008080600000002100808f5000faff3a00a4
:1021280000000000113a80000002200000806000da
:102138000000e000fbff32000080fa00000006000b
:102148000000fa000e2eef001e2eef002e2eef00dc
:102158003e2eef004e2eef005e2eef006e2eef00ab
:10216800214ea90060cea90060eea90011cea900f9
:1021780011eea90020eea90020cea9000080fa00e7
:04218800000006004d
:020000040000fa
:10218c001210000002000000800000000c10000083
:10219c000600000080000000161000001e00000069
:1021ac0080000000141000000200000082000000fb
:1021bc0001000000001000000c0000008000000076
:0421cc00000000000f
:020000040000fa
:02000004000af0
:04afe000cfff00009f
:020000040000fa
:02000004000af0
:04afe400ffff00006b
:020000040000fa
:02000004000af0
:04afe8007fff0000e7
:020000040000fa
:02000004000af0
:04afec005fff000003
:020000040000fa
:02000004000af0
:04aff00038ff000026
:020000040000fa
:02000004000af0
:04aff400ffff00005b
:00000001FF
